:020000040000fa
:080000000001040000000000f3
:020000040000fa
:0400080004020000ee
:020000040000fa
:04000c0004020000ea
:020000040000fa
:0400100004020000e6
:020000040000fa
:0400140004020000e2
:020000040000fa
:0400180004020000de
:020000040000fa
:04001c0004020000da
:020000040000fa
:0400200004020000d6
:020000040000fa
:0400240004020000d2
:020000040000fa
:0400280004020000ce
:020000040000fa
:04002c0004020000ca
:020000040000fa
:0400300004020000c6
:020000040000fa
:0400340004020000c2
:020000040000fa
:0400380004020000be
:020000040000fa
:04003c0004020000ba
:020000040000fa
:0400400004020000b6
:020000040000fa
:0400440004020000b2
:020000040000fa
:0400480004020000ae
:020000040000fa
:04004c0004020000aa
:020000040000fa
:0400500004020000a6
:020000040000fa
:0400540004020000a2
:020000040000fa
:04005800040200009e
:020000040000fa
:04005c00040200009a
:020000040000fa
:040060000402000096
:020000040000fa
:040064000402000092
:020000040000fa
:04006800040200008e
:020000040000fa
:04006c00040200008a
:020000040000fa
:040070000402000086
:020000040000fa
:040074000402000082
:020000040000fa
:04007800040200007e
:020000040000fa
:04007c00040200007a
:020000040000fa
:040080000402000076
:020000040000fa
:040084000402000072
:020000040000fa
:04008800040200006e
:020000040000fa
:04008c00040200006a
:020000040000fa
:040090000402000066
:020000040000fa
:040094000402000062
:020000040000fa
:04009800040200005e
:020000040000fa
:04009c00040200005a
:020000040000fa
:0400a0000402000056
:020000040000fa
:0400a4000402000052
:020000040000fa
:0400a800040200004e
:020000040000fa
:0400ac00040200004a
:020000040000fa
:0400b0000402000046
:020000040000fa
:0400b4000402000042
:020000040000fa
:0400b800040200003e
:020000040000fa
:0400bc00040200003a
:020000040000fa
:0400c0000402000036
:020000040000fa
:0400c4000402000032
:020000040000fa
:0400c800040200002e
:020000040000fa
:0400cc00040200002a
:020000040000fa
:0400d0000402000026
:020000040000fa
:0400d4000402000022
:020000040000fa
:0400d800040200001e
:020000040000fa
:0400dc00040200001a
:020000040000fa
:0400e0000402000016
:020000040000fa
:0400e4000402000012
:020000040000fa
:0400e800040200000e
:020000040000fa
:0400ec00040200000a
:020000040000fa
:0400f0000402000006
:020000040000fa
:0400f4000402000002
:020000040000fa
:0400f80004020000fe
:020000040000fa
:0400fc0004020000fa
:020000040000fa
:0401000004020000f5
:020000040000fa
:0401040004020000f1
:020000040000fa
:0401080004020000ed
:020000040000fa
:04010c0004020000e9
:020000040000fa
:0401100004020000e5
:020000040000fa
:0401140004020000e1
:020000040000fa
:0401180004020000dd
:020000040000fa
:04011c0004020000d9
:020000040000fa
:0401200004020000d5
:020000040000fa
:0401240004020000d1
:020000040000fa
:0401280004020000cd
:020000040000fa
:04012c0004020000c9
:020000040000fa
:0401300004020000c5
:020000040000fa
:0401340004020000c1
:020000040000fa
:0401380004020000bd
:020000040000fa
:04013c0004020000b9
:020000040000fa
:0401400004020000b5
:020000040000fa
:0401440004020000b1
:020000040000fa
:0401480004020000ad
:020000040000fa
:04014c0004020000a9
:020000040000fa
:0401500004020000a5
:020000040000fa
:0401540004020000a1
:020000040000fa
:04015800040200009d
:020000040000fa
:04015c000402000099
:020000040000fa
:040160000402000095
:020000040000fa
:040164000402000091
:020000040000fa
:04016800040200008d
:020000040000fa
:04016c000402000089
:020000040000fa
:040170000402000085
:020000040000fa
:040174000402000081
:020000040000fa
:04017800040200007d
:020000040000fa
:04017c000402000079
:020000040000fa
:040180000402000075
:020000040000fa
:040184000402000071
:020000040000fa
:04018800040200006d
:020000040000fa
:04018c000402000069
:020000040000fa
:040190000402000065
:020000040000fa
:040194000402000061
:020000040000fa
:04019800040200005d
:020000040000fa
:04019c000402000059
:020000040000fa
:0401a0000402000055
:020000040000fa
:0401a4000402000051
:020000040000fa
:0401a800040200004d
:020000040000fa
:0401ac000402000049
:020000040000fa
:0401b0000402000045
:020000040000fa
:0401b4000402000041
:020000040000fa
:0401b800040200003d
:020000040000fa
:0401bc000402000039
:020000040000fa
:0401c0000402000035
:020000040000fa
:0401c4000402000031
:020000040000fa
:0401c800040200002d
:020000040000fa
:0401cc000402000029
:020000040000fa
:0401d0000402000025
:020000040000fa
:0401d4000402000021
:020000040000fa
:0401d800040200001d
:020000040000fa
:0401dc000402000019
:020000040000fa
:0401e0000402000015
:020000040000fa
:0401e4000402000011
:020000040000fa
:0401e800040200000d
:020000040000fa
:0401ec000402000009
:020000040000fa
:0401f0000402000005
:020000040000fa
:0401f4000402000001
:020000040000fa
:0401f80004020000fd
:020000040000fa
:0401fc0004020000f9
:020000040000fa
:100200002f8020000eff27000e0188000000000054
:10021000000020000000e000020032000001200089
:100220002002880014000700830007000000e0009f
:1002300003003a000068200001002000020037009f
:100240000000200001002000810f7000010032003a
:1002500014000700000020000000e000020032004f
:100260000000020000000000aa05020000000000db
:100270000040da000000fe004440a90020002000f9
:100280000000e00003003200100020009001880010
:100290004440a800000006008a1f78008b1f7800e9
:1002a00000000600a1028800800478000000eb0036
:1002b0001f003700e284440054a0b4009905ba003e
:1002c000e284440054a0b4009906ba00e2844400d9
:1002d00054a0b4000006eb00476fde00fd07b2003b
:1002e000ae018800636ce10003003a00eaff0700fa
:1002f0000000eb000e003700606ce10008003a00df
:10030000004deb000a05e800020039003420ec0043
:100310000af0a0008b05e900f9ff3e000400370059
:100320006168e100010032000086eb000b0007006d
:1003300019c7ba001905ba000e04e00003003a001c
:100340000a00e000dbff3a0000000600fe07b200f2
:10035000ae0288008a047800f5ff37000cd0a300b5
:10036000e20f4d001c00390089027800354dba00bb
:100370000a05e800020039003420ec000af0a00071
:100380008b05e9000f003200254dba000a05e80090
:10039000020039003420ec000af0a0008b05e900cf
:1003a000080032000c00e0000600320015cdba0053
:1003b0000a05e800020039003420ec000af0a00031
:1003c0008b05e9008984e80054a0b4000b00e0002c
:1003d000e2ff3a00000006009902ba00055d7800cd
:1003e0008b05e900f7ff3200c82ade00055d7800c2
:1003f0008b05e900f3ff32000c00e000f1ff320052
:1004000019ddba00eeff37000040da000000fe0000
:100410000600fa00000f78001107980022079800e4
:100420001e009000ae0090006d0007002e009000ae
:0c0430000080fa0000000600000005003b
:020000040000fa
:10043c000000fa00889fbe008a9fbe008c9fbe0001
:10044c0041098000f07f2e00008060004009880088
:10045c004109800000302000010070004009880034
:10046c0041098000f0f32f000080600040098800f3
:10047c0028a1a9002881a9002841a900002020005a
:10048c009009880031e1a90031c1a8003181a80090
:10049c003141a8003121a80031a1a8003101a900e7
:1004ac0081098000f0f92f00008060000060a0003e
:1004bc0080098800a1098000f0ff23000080600003
:1004cc00a0098800a1098000000c20000100700028
:1004dc00a0098800a1098000c00320000100700061
:1004ec00a0098800a00980003000b300a009880092
:1004fc002a61ef0010002000700988002de1a8008f
:10050c002dc1a8002d81a8002da1a8006109800093
:10051c000060200001007000600988002d01a80017
:10052c0029e1a80000e224005f01070000e224009a
:10053c005d010700820320000c0028004d00200004
:10054c00a00180008d0178008c007800a301880048
:10055c0082087800a0018800802025005201070045
:10056c00c20020000a0028004b002000a0018000df
:10057c008b0178008a007800a3018800820878003b
:10058c00a0018800803e2000470107006200200087
:10059c000800280049002000a00180008901780093
:1005ac0088007800a301880082087800a0018800e8
:1005bc0080bb20003c0107007500070010c0b30091
:1005cc004f06be004f05be004f04be000080fa006f
:1005dc00000006000400fa00000f780011079800d4
:1005ec000a0037001e007800104078000000fb0065
:1005fc000000e000110032001e007800104078006e
:10060c001e0fe80010000700000000001e00900004
:10061c0000f0a7000000ea000000ea004f00de0036
:10062c00004078009e0090008100e90011079800be
:10063c000004e000ebff3a0001003700000000006e
:10064c000080fa00000006000200fa00889fbe003d
:10065c00004f78001e00fb00ea0f50000b00320028
:10066c00ea0f500003003c00e80f50000e0032006f
:10067c0014003700ec0f500010003200ed0f50004a
:10068c0010003a005f0007003e00370000c8bf00b2
:10069c000004e00002003a00f800070039003700bf
:1006ac00eb000700370037007500070000c2b300ed
:1006bc00e5ff070072000700320037003400070026
:1006cc003000370001c8bf00f04f50001e003a0048
:1006dc000168ef0000c8bf000004e0000e003a0003
:1006ec00020c20000400280045002000a00180001e
:1006fc008501780084007800a301880082087800c6
:10070c00a001880080bb2000e700070010c0b300e8
:10071c0000e8b7000c003700040820000200280095
:10072c0043002000a0018000830278008200780042
:10073c00a501880084087800a001880080bb2000f7
:10074c00d90007000068ef001e01fb0028002800fc
:10075c0049002000a0018000890178008800780001
:10076c00a301880082087800a0018800803e200048
:10077c00cd00070001c8bf000040e80001e8b70049
:10078c00000000004f04be000080fa0000000600cc
:10079c000000fa00889fbe00130020000000280013
:1007ac0041002000a20180000102780000007800c6
:1007bc00a401880003087800a201880080bb2000f7
:1007cc00b900070022002000080028004900200082
:1007dc00a00180008901780088007800a3018800be
:1007ec0082087800a001880080bb2000ae000700c2
:1007fc000068ef000168ef004f04be000080fa00b3
:10080c00000006000000fa0004802000144278006a
:10081c000404e0000c003a00040820000200280048
:10082c0043002000a0018000830278008200780041
:10083c00a501880084087800a001880080bb2000f6
:10084c00990007000b003700030c20000000280063
:10085c0041002000a2018000010278000000780015
:10086c00a401880003087800a201880080bb200046
:10087c008d0007000168ef000080fa000000060000
:10088c000200fa0016802000164378000604e000ef
:10089c0026003a0000c8bf000004e0000e003a0039
:1008ac00020c20000400280045002000a00180005c
:1008bc008501780084007800a30188008208780004
:1008cc00a001880080bb20007700070010c0b30097
:1008dc0000e8b7000c0037000408200002002800d4
:1008ec0043002000a0018000830278008200780081
:1008fc00a501880084087800a001880080bb200036
:10090c00690007000068ef000040eb00004f780022
:10091c0002003700180007001e4fe8001e40780048
:10092c00ee4f5000fbff3600110037001280200004
:10093c00124178000241e9008241780011802000c8
:10094c0083487800030120000000280041002000ab
:10095c00a20180000102780000007800a401880048
:10096c0003087800a2018800803e20004e0007009a
:10097c000080fa00000006000000fa00889fbe000c
:10098c008a9fbe0043012000000028004100200087
:10099c00a20180000102780000007800a401880008
:1009ac0003087800a2018800803e20003e0007006a
:1009bc0001c8bf000040e80001e8b70001c8bf0053
:1009cc00f04f50001e003a000168ef0000c8bf0055
:1009dc000004e0000e003a00020c20000a0028007f
:1009ec004b002000a00180008b0178008a00780069
:1009fc00a301880082087800a001880080bb200039
:100a0c002900070010c0b30000e8b7000c00370045
:100a1c00020820000800280049002000a0018000e6
:100a2c008901780088007800a3018800820878008a
:100a3c00a001880080bb20001b0007000068ef00ad
:100a4c004f05be004f04be000080fa0000000600f7
:100a5c000200fa000040eb00004f78000200370063
:100a6c0087ff07001e4fe8001e407800ef4f500034
:100a7c00fbff36000080fa00000006000200fa00be
:100a8c000040eb00004f780002003700baff07006f
:100a9c001e4fe8001e407800ef4f5000fbff360061
:100aac000080fa00000006000200fa00000f780037
:100abc0002003700000000001e0fe9001e00780045
:100acc000000e000fbff3a000080fa000000060086
:100adc000200fa00004f78001e4078000004e0008d
:100aec000c003200f2002000040028004500200019
:100afc00a00180008501780084007800a3018800a3
:100b0c0082087800a001880080bb2000e6ff070067
:100b1c000b003700c4002000020028004300200016
:100b2c00a00180008302780082007800a501880073
:100b3c0084087800a001880080bb2000daff070041
:100b4c000080fa00000006000600fa006226ef00a2
:100b5c0001003700000000000000eb00000f7800df
:100b6c00500020003033880000902000d10320007a
:100b7c005200070001003700000000001e00780042
:100b8c00ea0f500007003a000000eb001007980035
:100b9c000000eb00200798000000eb00000f78002d
:100bac001d003700303380000000400030338800d7
:100bbc0000902000d1032000400007001e0fe80029
:100bcc0031338000000a2000808f5000eaff3a0089
:100bdc0001003700000000001e007800ea0f5000f2
:100bec0001003a000b003700303380000000d100c8
:100bfc003033880000902000d10320002f00070024
:100c0c001e0fe80030338000e50f5000f1ff3a0072
:100c1c0000000000d9ff37001e007800ea0f5000da
:100c2c00ccff32001e0090000000e00010003200eb
:100c3c002e0090000000e0000d0032001e0090001d
:100c4c000000e800e20f5000090036001e00900082
:100c5c00cf00de00008040000080d100100798001b
:100c6c002e00900000004000200798000a0037007a
:100c7c001e009000e10f5000030032001e00900097
:100c8c000000e00004003a00000820001007980063
:100c9c0010002000200798009e0090002e0090006d
:100cac00008040003033880000902000d1032000e9
:0c0cbc00020007001e0fe800d7ff370001
:020000040000fa
:100cc800f03fb1000180b10006003500ee030900d5
:100cd80000000000403fb1000180b100fbff3d0073
:100ce8001000b000203fb00002003500008009006d
:080cf8000000000000000600ee
:020000040000fa
:100d00000008000002000000800000000000000059
:020000040000fa
:020000040015e5
:047e3000faffff0056
:020000040000fa
:020000040015e5
:047e3800feffff004a
:020000040000fa
:020000040015e5
:047e40009fffff00a1
:020000040000fa
:020000040015e5
:047e5000dfffff0051
:00000001FF
